{
  "_format": "hh-sol-artifact-1",
  "contractName": "MyBallot",
  "sourceName": "contracts/Voting.sol",
  "abi": [
    {
      "inputs": [],
      "stateMutability": "nonpayable",
      "type": "constructor"
    },
    {
      "inputs": [],
      "name": "ActiveBallotId",
      "outputs": [
        {
          "internalType": "uint256",
          "name": "",
          "type": "uint256"
        }
      ],
      "stateMutability": "view",
      "type": "function"
    },
    {
      "inputs": [
        {
          "internalType": "string",
          "name": "_name",
          "type": "string"
        }
      ],
      "name": "addCandidate",
      "outputs": [],
      "stateMutability": "nonpayable",
      "type": "function"
    },
    {
      "inputs": [
        {
          "internalType": "address",
          "name": "_address",
          "type": "address"
        }
      ],
      "name": "addVoter",
      "outputs": [],
      "stateMutability": "nonpayable",
      "type": "function"
    },
    {
      "inputs": [
        {
          "internalType": "uint256",
          "name": "",
          "type": "uint256"
        }
      ],
      "name": "ballot",
      "outputs": [
        {
          "internalType": "uint256",
          "name": "winningCandidateId",
          "type": "uint256"
        },
        {
          "internalType": "uint256",
          "name": "candidatesCount",
          "type": "uint256"
        }
      ],
      "stateMutability": "view",
      "type": "function"
    },
    {
      "inputs": [],
      "name": "endVote",
      "outputs": [],
      "stateMutability": "nonpayable",
      "type": "function"
    },
    {
      "inputs": [
        {
          "internalType": "uint256",
          "name": "candidateId",
          "type": "uint256"
        }
      ],
      "name": "getCandidateNameById",
      "outputs": [
        {
          "internalType": "string",
          "name": "_candidateName",
          "type": "string"
        }
      ],
      "stateMutability": "view",
      "type": "function"
    },
    {
      "inputs": [
        {
          "internalType": "uint256",
          "name": "",
          "type": "uint256"
        },
        {
          "internalType": "address",
          "name": "",
          "type": "address"
        }
      ],
      "name": "hasVoted",
      "outputs": [
        {
          "internalType": "bool",
          "name": "",
          "type": "bool"
        }
      ],
      "stateMutability": "view",
      "type": "function"
    },
    {
      "inputs": [
        {
          "internalType": "uint256",
          "name": "",
          "type": "uint256"
        },
        {
          "internalType": "uint256",
          "name": "",
          "type": "uint256"
        }
      ],
      "name": "isCandidate",
      "outputs": [
        {
          "internalType": "bool",
          "name": "",
          "type": "bool"
        }
      ],
      "stateMutability": "view",
      "type": "function"
    },
    {
      "inputs": [
        {
          "internalType": "uint256",
          "name": "",
          "type": "uint256"
        },
        {
          "internalType": "address",
          "name": "",
          "type": "address"
        }
      ],
      "name": "isVoter",
      "outputs": [
        {
          "internalType": "bool",
          "name": "",
          "type": "bool"
        }
      ],
      "stateMutability": "view",
      "type": "function"
    },
    {
      "inputs": [],
      "name": "owner",
      "outputs": [
        {
          "internalType": "address",
          "name": "",
          "type": "address"
        }
      ],
      "stateMutability": "view",
      "type": "function"
    },
    {
      "inputs": [
        {
          "internalType": "uint256",
          "name": "candidateId",
          "type": "uint256"
        }
      ],
      "name": "vote",
      "outputs": [],
      "stateMutability": "nonpayable",
      "type": "function"
    },
    {
      "inputs": [
        {
          "internalType": "uint256",
          "name": "",
          "type": "uint256"
        }
      ],
      "name": "winningCandidateId",
      "outputs": [
        {
          "internalType": "uint256",
          "name": "",
          "type": "uint256"
        }
      ],
      "stateMutability": "view",
      "type": "function"
    },
    {
      "inputs": [
        {
          "internalType": "uint256",
          "name": "",
          "type": "uint256"
        }
      ],
      "name": "winningVoteCount",
      "outputs": [
        {
          "internalType": "uint256",
          "name": "",
          "type": "uint256"
        }
      ],
      "stateMutability": "view",
      "type": "function"
    }
  ],
  "bytecode": "0x608060405234801561001057600080fd5b5060018081905550336000806101000a81548173ffffffffffffffffffffffffffffffffffffffff021916908373ffffffffffffffffffffffffffffffffffffffff160217905550611055806100676000396000f3fe608060405234801561001057600080fd5b50600436106100ce5760003560e01c80638da5cb5b1161008c578063b922394611610066578063b922394614610249578063e794273414610253578063f413177c14610284578063f4ab9adf146102a2576100ce565b80638da5cb5b146101cb5780639ae3eb78146101e9578063ae0a937f14610219576100ce565b8062b74c45146100d35780630121b93f14610103578063438596321461011f578063462e91ec1461014f5780635d64d5521461016b5780635e8d23e91461019b575b600080fd5b6100ed60048036038101906100e89190610c4a565b6102be565b6040516100fa9190610d43565b60405180910390f35b61011d60048036038101906101189190610c21565b6102ed565b005b61013960048036038101906101349190610c4a565b610599565b6040516101469190610d43565b60405180910390f35b61016960048036038101906101649190610be0565b6105c8565b005b61018560048036038101906101809190610c86565b6106c3565b6040516101929190610d43565b60405180910390f35b6101b560048036038101906101b09190610c21565b6106f2565b6040516101c29190610d80565b60405180910390f35b6101d361070a565b6040516101e09190610d28565b60405180910390f35b61020360048036038101906101fe9190610c21565b61072e565b6040516102109190610d80565b60405180910390f35b610233600480360381019061022e9190610c21565b610746565b6040516102409190610d5e565b60405180910390f35b61025161083f565b005b61026d60048036038101906102689190610c21565b6108b2565b60405161027b929190610d9b565b60405180910390f35b61028c6108d6565b6040516102999190610d80565b60405180910390f35b6102bc60048036038101906102b79190610bb7565b6108dc565b005b60066020528160005260406000206020528060005260406000206000915091509054906101000a900460ff1681565b6000600260006001548152602001908152602001600020905060066000600154815260200190815260200160002060003373ffffffffffffffffffffffffffffffffffffffff1673ffffffffffffffffffffffffffffffffffffffff16815260200190815260200160002060009054906101000a900460ff1661036f57600080fd5b60056000600154815260200190815260200160002060003373ffffffffffffffffffffffffffffffffffffffff1673ffffffffffffffffffffffffffffffffffffffff16815260200190815260200160002060009054906101000a900460ff16156103d957600080fd5b6001816000018381548110610417577f4e487b7100000000000000000000000000000000000000000000000000000000600052603260045260246000fd5b906000526020600020906003020160020160008282546104379190610e41565b9250508190555060036000600154815260200190815260200160002054816000018381548110610490577f4e487b7100000000000000000000000000000000000000000000000000000000600052603260045260246000fd5b906000526020600020906003020160020154111561052a5781600460006001548152602001908152602001600020819055508060000182815481106104fe577f4e487b7100000000000000000000000000000000000000000000000000000000600052603260045260246000fd5b906000526020600020906003020160020154600360006001548152602001908152602001600020819055505b600160056000600154815260200190815260200160002060003373ffffffffffffffffffffffffffffffffffffffff1673ffffffffffffffffffffffffffffffffffffffff16815260200190815260200160002060006101000a81548160ff0219169083151502179055505050565b60056020528160005260406000206020528060005260406000206000915091509054906101000a900460ff1681565b60008054906101000a900473ffffffffffffffffffffffffffffffffffffffff1673ffffffffffffffffffffffffffffffffffffffff163373ffffffffffffffffffffffffffffffffffffffff161461062057600080fd5b60006002600060015481526020019081526020016000209050600060405180606001604052808360030154815260200184815260200160008152509050816000018190806001815401808255809150506001900390600052602060002090600302016000909190919091506000820151816000015560208201518160010190805190602001906106b1929190610a82565b50604082015181600201555050505050565b60076020528160005260406000206020528060005260406000206000915091509054906101000a900460ff1681565b60036020528060005260406000206000915090505481565b60008054906101000a900473ffffffffffffffffffffffffffffffffffffffff1681565b60046020528060005260406000206000915090505481565b60606000600260006001548152602001908152602001600020905080600001838154811061079d577f4e487b7100000000000000000000000000000000000000000000000000000000600052603260045260246000fd5b906000526020600020906003020160010180546107b990610f21565b80601f01602080910402602001604051908101604052809291908181526020018280546107e590610f21565b80156108325780601f1061080757610100808354040283529160200191610832565b820191906000526020600020905b81548152906001019060200180831161081557829003601f168201915b5050505050915050919050565b60008054906101000a900473ffffffffffffffffffffffffffffffffffffffff1673ffffffffffffffffffffffffffffffffffffffff163373ffffffffffffffffffffffffffffffffffffffff161461089757600080fd5b60018060008282546108a99190610e41565b92505081905550565b60026020528060005260406000206000915090508060020154908060030154905082565b60015481565b60008054906101000a900473ffffffffffffffffffffffffffffffffffffffff1673ffffffffffffffffffffffffffffffffffffffff163373ffffffffffffffffffffffffffffffffffffffff161461093457600080fd5b60006002600060015481526020019081526020016000209050600060405180604001604052808473ffffffffffffffffffffffffffffffffffffffff168152602001600015158152509050600160066000600154815260200190815260200160002060008573ffffffffffffffffffffffffffffffffffffffff1673ffffffffffffffffffffffffffffffffffffffff16815260200190815260200160002060006101000a81548160ff02191690831515021790555081600101819080600181540180825580915050600190039060005260206000200160009091909190915060008201518160000160006101000a81548173ffffffffffffffffffffffffffffffffffffffff021916908373ffffffffffffffffffffffffffffffffffffffff16021790555060208201518160000160146101000a81548160ff0219169083151502179055505050505050565b828054610a8e90610f21565b90600052602060002090601f016020900481019282610ab05760008555610af7565b82601f10610ac957805160ff1916838001178555610af7565b82800160010185558215610af7579182015b82811115610af6578251825591602001919060010190610adb565b5b509050610b049190610b08565b5090565b5b80821115610b21576000816000905550600101610b09565b5090565b6000610b38610b3384610df5565b610dc4565b905082815260208101848484011115610b5057600080fd5b610b5b848285610edf565b509392505050565b600081359050610b7281610ff1565b92915050565b600082601f830112610b8957600080fd5b8135610b99848260208601610b25565b91505092915050565b600081359050610bb181611008565b92915050565b600060208284031215610bc957600080fd5b6000610bd784828501610b63565b91505092915050565b600060208284031215610bf257600080fd5b600082013567ffffffffffffffff811115610c0c57600080fd5b610c1884828501610b78565b91505092915050565b600060208284031215610c3357600080fd5b6000610c4184828501610ba2565b91505092915050565b60008060408385031215610c5d57600080fd5b6000610c6b85828601610ba2565b9250506020610c7c85828601610b63565b9150509250929050565b60008060408385031215610c9957600080fd5b6000610ca785828601610ba2565b9250506020610cb885828601610ba2565b9150509250929050565b610ccb81610e97565b82525050565b610cda81610ea9565b82525050565b6000610ceb82610e25565b610cf58185610e30565b9350610d05818560208601610eee565b610d0e81610fe0565b840191505092915050565b610d2281610ed5565b82525050565b6000602082019050610d3d6000830184610cc2565b92915050565b6000602082019050610d586000830184610cd1565b92915050565b60006020820190508181036000830152610d788184610ce0565b905092915050565b6000602082019050610d956000830184610d19565b92915050565b6000604082019050610db06000830185610d19565b610dbd6020830184610d19565b9392505050565b6000604051905081810181811067ffffffffffffffff82111715610deb57610dea610fb1565b5b8060405250919050565b600067ffffffffffffffff821115610e1057610e0f610fb1565b5b601f19601f8301169050602081019050919050565b600081519050919050565b600082825260208201905092915050565b6000610e4c82610ed5565b9150610e5783610ed5565b9250827fffffffffffffffffffffffffffffffffffffffffffffffffffffffffffffffff03821115610e8c57610e8b610f53565b5b828201905092915050565b6000610ea282610eb5565b9050919050565b60008115159050919050565b600073ffffffffffffffffffffffffffffffffffffffff82169050919050565b6000819050919050565b82818337600083830152505050565b60005b83811015610f0c578082015181840152602081019050610ef1565b83811115610f1b576000848401525b50505050565b60006002820490506001821680610f3957607f821691505b60208210811415610f4d57610f4c610f82565b5b50919050565b7f4e487b7100000000000000000000000000000000000000000000000000000000600052601160045260246000fd5b7f4e487b7100000000000000000000000000000000000000000000000000000000600052602260045260246000fd5b7f4e487b7100000000000000000000000000000000000000000000000000000000600052604160045260246000fd5b6000601f19601f8301169050919050565b610ffa81610e97565b811461100557600080fd5b50565b61101181610ed5565b811461101c57600080fd5b5056fea26469706673582212201c55e11c1c3182127585241750f982eac255810f9ca3b5ace75c0d96cb63109164736f6c63430008000033",
  "linkReferences": {},
  "deployedLinkReferences": {}
}