{
  "_format": "hh-sol-artifact-1",
  "contractName": "MyBallot",
  "sourceName": "contracts/Voting.sol",
  "abi": [
    {
      "inputs": [],
      "stateMutability": "nonpayable",
      "type": "constructor"
    },
    {
      "inputs": [
        {
          "internalType": "string",
          "name": "_name",
          "type": "string"
        }
      ],
      "name": "addCandidate",
      "outputs": [],
      "stateMutability": "nonpayable",
      "type": "function"
    },
    {
      "inputs": [
        {
          "internalType": "address",
          "name": "_address",
          "type": "address"
        }
      ],
      "name": "addVoter",
      "outputs": [],
      "stateMutability": "nonpayable",
      "type": "function"
    },
    {
      "inputs": [
        {
          "internalType": "uint256",
          "name": "",
          "type": "uint256"
        }
      ],
      "name": "candidates",
      "outputs": [
        {
          "internalType": "uint256",
          "name": "id",
          "type": "uint256"
        },
        {
          "internalType": "string",
          "name": "name",
          "type": "string"
        },
        {
          "internalType": "uint256",
          "name": "voteCount",
          "type": "uint256"
        }
      ],
      "stateMutability": "view",
      "type": "function"
    },
    {
      "inputs": [],
      "name": "candidatesCount",
      "outputs": [
        {
          "internalType": "uint256",
          "name": "",
          "type": "uint256"
        }
      ],
      "stateMutability": "view",
      "type": "function"
    },
    {
      "inputs": [],
      "name": "endVote",
      "outputs": [],
      "stateMutability": "nonpayable",
      "type": "function"
    },
    {
      "inputs": [],
      "name": "getCandidatesId",
      "outputs": [
        {
          "internalType": "uint256[]",
          "name": "",
          "type": "uint256[]"
        }
      ],
      "stateMutability": "view",
      "type": "function"
    },
    {
      "inputs": [
        {
          "internalType": "address",
          "name": "",
          "type": "address"
        }
      ],
      "name": "hasVoted",
      "outputs": [
        {
          "internalType": "bool",
          "name": "",
          "type": "bool"
        }
      ],
      "stateMutability": "view",
      "type": "function"
    },
    {
      "inputs": [],
      "name": "isVoteEnded",
      "outputs": [
        {
          "internalType": "bool",
          "name": "",
          "type": "bool"
        }
      ],
      "stateMutability": "view",
      "type": "function"
    },
    {
      "inputs": [
        {
          "internalType": "address",
          "name": "",
          "type": "address"
        }
      ],
      "name": "isVoter",
      "outputs": [
        {
          "internalType": "bool",
          "name": "",
          "type": "bool"
        }
      ],
      "stateMutability": "view",
      "type": "function"
    },
    {
      "inputs": [],
      "name": "owner",
      "outputs": [
        {
          "internalType": "address",
          "name": "",
          "type": "address"
        }
      ],
      "stateMutability": "view",
      "type": "function"
    },
    {
      "inputs": [
        {
          "internalType": "uint256",
          "name": "candidateId",
          "type": "uint256"
        }
      ],
      "name": "vote",
      "outputs": [],
      "stateMutability": "nonpayable",
      "type": "function"
    },
    {
      "inputs": [],
      "name": "winningCandidateId",
      "outputs": [
        {
          "internalType": "uint256",
          "name": "",
          "type": "uint256"
        }
      ],
      "stateMutability": "view",
      "type": "function"
    },
    {
      "inputs": [],
      "name": "winningVoteCount",
      "outputs": [
        {
          "internalType": "uint256",
          "name": "",
          "type": "uint256"
        }
      ],
      "stateMutability": "view",
      "type": "function"
    }
  ],
  "bytecode": "0x6080604052600060045560006005556000600660006101000a81548160ff02191690831515021790555034801561003557600080fd5b50336000806101000a81548173ffffffffffffffffffffffffffffffffffffffff021916908373ffffffffffffffffffffffffffffffffffffffff160217905550611243806100856000396000f3fe608060405234801561001057600080fd5b50600436106100cf5760003560e01c8063462e91ec1161008c578063a7771ee311610066578063a7771ee314610204578063b922394614610234578063f3332fc91461023e578063f4ab9adf1461025c576100cf565b8063462e91ec146101ac578063789f0e36146101c85780638da5cb5b146101e6576100cf565b80630121b93f146100d457806309eef43e146100f05780631d9128d3146101205780631eb855381461013e5780632d35a8a21461015c5780633477ee2e1461017a575b600080fd5b6100ee60048036038101906100e99190610c4b565b610278565b005b61010a60048036038101906101059190610be1565b61054e565b6040516101179190610e5c565b60405180910390f35b61012861056e565b6040516101359190610ed7565b60405180910390f35b610146610574565b6040516101539190610ed7565b60405180910390f35b61016461057a565b6040516101719190610ed7565b60405180910390f35b610194600480360381019061018f9190610c4b565b610580565b6040516101a393929190610ef2565b60405180910390f35b6101c660048036038101906101c19190610c0a565b610642565b005b6101d0610739565b6040516101dd9190610e5c565b60405180910390f35b6101ee61074c565b6040516101fb9190610e1f565b60405180910390f35b61021e60048036038101906102199190610be1565b610770565b60405161022b9190610e5c565b60405180910390f35b61023c610790565b005b610246610805565b6040516102539190610e3a565b60405180910390f35b61027660048036038101906102719190610be1565b610935565b005b600860003373ffffffffffffffffffffffffffffffffffffffff1673ffffffffffffffffffffffffffffffffffffffff16815260200190815260200160002060009054906101000a900460ff16610304576040517f08c379a00000000000000000000000000000000000000000000000000000000081526004016102fb90610e97565b60405180910390fd5b600760003373ffffffffffffffffffffffffffffffffffffffff1673ffffffffffffffffffffffffffffffffffffffff16815260200190815260200160002060009054906101000a900460ff1615610391576040517f08c379a000000000000000000000000000000000000000000000000000000000815260040161038890610e77565b60405180910390fd5b600660009054906101000a900460ff16156103e1576040517f08c379a00000000000000000000000000000000000000000000000000000000081526004016103d890610eb7565b60405180910390fd5b60016002828154811061041d577f4e487b7100000000000000000000000000000000000000000000000000000000600052603260045260246000fd5b9060005260206000209060030201600201600082825461043d9190610fe6565b9250508190555060055460028281548110610481577f4e487b7100000000000000000000000000000000000000000000000000000000600052603260045260246000fd5b90600052602060002090600302016002015411156104f35780600181905550600281815481106104da577f4e487b7100000000000000000000000000000000000000000000000000000000600052603260045260246000fd5b9060005260206000209060030201600201546005819055505b6001600760003373ffffffffffffffffffffffffffffffffffffffff1673ffffffffffffffffffffffffffffffffffffffff16815260200190815260200160002060006101000a81548160ff02191690831515021790555050565b60076020528060005260406000206000915054906101000a900460ff1681565b60055481565b60015481565b60045481565b6002818154811061059057600080fd5b90600052602060002090600302016000915090508060000154908060010180546105b9906110c6565b80601f01602080910402602001604051908101604052809291908181526020018280546105e5906110c6565b80156106325780601f1061060757610100808354040283529160200191610632565b820191906000526020600020905b81548152906001019060200180831161061557829003601f168201915b5050505050908060020154905083565b60008054906101000a900473ffffffffffffffffffffffffffffffffffffffff1673ffffffffffffffffffffffffffffffffffffffff163373ffffffffffffffffffffffffffffffffffffffff161461069a57600080fd5b60006040518060600160405280600454815260200183815260200160008152509050600281908060018154018082558091505060019003906000526020600020906003020160009091909190915060008201518160000155602082015181600101908051906020019061070e929190610aac565b5060408201518160020155505060016004600082825461072e9190610fe6565b925050819055505050565b600660009054906101000a900460ff1681565b60008054906101000a900473ffffffffffffffffffffffffffffffffffffffff1681565b60086020528060005260406000206000915054906101000a900460ff1681565b60008054906101000a900473ffffffffffffffffffffffffffffffffffffffff1673ffffffffffffffffffffffffffffffffffffffff163373ffffffffffffffffffffffffffffffffffffffff16146107e857600080fd5b6001600660006101000a81548160ff021916908315150217905550565b6060600060045467ffffffffffffffff81111561084b577f4e487b7100000000000000000000000000000000000000000000000000000000600052604160045260246000fd5b6040519080825280602002602001820160405280156108795781602001602082028036833780820191505090505b50905060005b60045481101561092d57600281815481106108c3577f4e487b7100000000000000000000000000000000000000000000000000000000600052603260045260246000fd5b90600052602060002090600302016000015482828151811061090e577f4e487b7100000000000000000000000000000000000000000000000000000000600052603260045260246000fd5b6020026020010181815250508080610925906110f8565b91505061087f565b508091505090565b60008054906101000a900473ffffffffffffffffffffffffffffffffffffffff1673ffffffffffffffffffffffffffffffffffffffff163373ffffffffffffffffffffffffffffffffffffffff161461098d57600080fd5b600060405180604001604052808373ffffffffffffffffffffffffffffffffffffffff1681526020016000151581525090506001600860008473ffffffffffffffffffffffffffffffffffffffff1673ffffffffffffffffffffffffffffffffffffffff16815260200190815260200160002060006101000a81548160ff0219169083151502179055506003819080600181540180825580915050600190039060005260206000200160009091909190915060008201518160000160006101000a81548173ffffffffffffffffffffffffffffffffffffffff021916908373ffffffffffffffffffffffffffffffffffffffff16021790555060208201518160000160146101000a81548160ff02191690831515021790555050505050565b828054610ab8906110c6565b90600052602060002090601f016020900481019282610ada5760008555610b21565b82601f10610af357805160ff1916838001178555610b21565b82800160010185558215610b21579182015b82811115610b20578251825591602001919060010190610b05565b5b509050610b2e9190610b32565b5090565b5b80821115610b4b576000816000905550600101610b33565b5090565b6000610b62610b5d84610f61565b610f30565b905082815260208101848484011115610b7a57600080fd5b610b85848285611084565b509392505050565b600081359050610b9c816111df565b92915050565b600082601f830112610bb357600080fd5b8135610bc3848260208601610b4f565b91505092915050565b600081359050610bdb816111f6565b92915050565b600060208284031215610bf357600080fd5b6000610c0184828501610b8d565b91505092915050565b600060208284031215610c1c57600080fd5b600082013567ffffffffffffffff811115610c3657600080fd5b610c4284828501610ba2565b91505092915050565b600060208284031215610c5d57600080fd5b6000610c6b84828501610bcc565b91505092915050565b6000610c808383610e01565b60208301905092915050565b610c958161103c565b82525050565b6000610ca682610fa1565b610cb08185610fc4565b9350610cbb83610f91565b8060005b83811015610cec578151610cd38882610c74565b9750610cde83610fb7565b925050600181019050610cbf565b5085935050505092915050565b610d028161104e565b82525050565b6000610d1382610fac565b610d1d8185610fd5565b9350610d2d818560208601611093565b610d36816111ce565b840191505092915050565b6000610d4e601783610fd5565b91507f566f7465722068617320616c726561647920766f7465640000000000000000006000830152602082019050919050565b6000610d8e601783610fd5565b91507f566f746572206973206e6f7420726567697374657265640000000000000000006000830152602082019050919050565b6000610dce601883610fd5565b91507f766f74696e672070726f636573732068617320656e64656400000000000000006000830152602082019050919050565b610e0a8161107a565b82525050565b610e198161107a565b82525050565b6000602082019050610e346000830184610c8c565b92915050565b60006020820190508181036000830152610e548184610c9b565b905092915050565b6000602082019050610e716000830184610cf9565b92915050565b60006020820190508181036000830152610e9081610d41565b9050919050565b60006020820190508181036000830152610eb081610d81565b9050919050565b60006020820190508181036000830152610ed081610dc1565b9050919050565b6000602082019050610eec6000830184610e10565b92915050565b6000606082019050610f076000830186610e10565b8181036020830152610f198185610d08565b9050610f286040830184610e10565b949350505050565b6000604051905081810181811067ffffffffffffffff82111715610f5757610f5661119f565b5b8060405250919050565b600067ffffffffffffffff821115610f7c57610f7b61119f565b5b601f19601f8301169050602081019050919050565b6000819050602082019050919050565b600081519050919050565b600081519050919050565b6000602082019050919050565b600082825260208201905092915050565b600082825260208201905092915050565b6000610ff18261107a565b9150610ffc8361107a565b9250827fffffffffffffffffffffffffffffffffffffffffffffffffffffffffffffffff0382111561103157611030611141565b5b828201905092915050565b60006110478261105a565b9050919050565b60008115159050919050565b600073ffffffffffffffffffffffffffffffffffffffff82169050919050565b6000819050919050565b82818337600083830152505050565b60005b838110156110b1578082015181840152602081019050611096565b838111156110c0576000848401525b50505050565b600060028204905060018216806110de57607f821691505b602082108114156110f2576110f1611170565b5b50919050565b60006111038261107a565b91507fffffffffffffffffffffffffffffffffffffffffffffffffffffffffffffffff82141561113657611135611141565b5b600182019050919050565b7f4e487b7100000000000000000000000000000000000000000000000000000000600052601160045260246000fd5b7f4e487b7100000000000000000000000000000000000000000000000000000000600052602260045260246000fd5b7f4e487b7100000000000000000000000000000000000000000000000000000000600052604160045260246000fd5b6000601f19601f8301169050919050565b6111e88161103c565b81146111f357600080fd5b50565b6111ff8161107a565b811461120a57600080fd5b5056fea264697066735822122004d65b2c6288039de612ccd7d01702d87071a3c046ffc165499e18ed03e4113b64736f6c63430008000033",
  "linkReferences": {},
  "deployedLinkReferences": {}
}